:100000000C9470040C94B7040C94B7040C94B704CB
:100010000C94B7040C94B7040C94B7040C94B70474
:100020000C94B7040C94B7040C944B190C94071956
:100030000C94FA2E0C94B7040C94B7040C94B704E7
:100040000C94B7040C94B7040C94B7040C94B70444
:100050000C94B7040C94221A0C94B7040C94B704B3
:100060000C94B7040C94B7040C94B7040C94B70424
:100070000C94B7040C94B7040C94B7040C94B70414
:100080000C94B7040C94B7040C94B7040C94B70404
:100090000C94B7040C94B7040C94B7040C94B704F4
:1000A0000C94B7040C94B7040C94B70446004900B0
:1000B00000001E001F0000005300E10000003A0095
:1000C0003B0000005300B200000005010980A101BF
:1000D000850319012AB700150126B700950175108F
:1000E0008100C0050C0901A101850419012AA002A3
:1000F000150126A002950175108100C005010906B1
:10010000A1018505050719E029E7150025019508D6
:10011000750181020507190029EF1500250195F0E9
:1001200075018102050819012905950575019102DE
:10013000950175039101C00660FF0961A101096283
:10014000150026FF00952075088102096315002619
:10015000FF00952075089102C005010906A101055F
:100160000719E029E7150025019508750181029519
:1001700001750881010507190029FF150026FF00F8
:100180009506750881000508190129059505750171
:100190009102950175039101C00000000000003E2E
:1001A0005B4F5B3E003E6B4F6B3E001C3E7C3E1C3B
:1001B00000183C7E3C18001C577D571C001C5E7FBD
:1001C0005E1C0000183C180000FFE7C3E7FF0000BA
:1001D0001824180000FFE7DBE7FF0030483A060E5E
:1001E00000262979292600407F05050700407F0564
:1001F000253F005A3CE73C5A007F3E1C1C08000883
:100200001C1C3E7F0014227F2214005F5F005F5F92
:100210000006097F017F00006689956A00606060C2
:1002200060600094A2FFA2940008047E04080010FD
:10023000207E20100008082A1C0800081C2A080834
:10024000001E10101010000C1E0C1E0C0030383E4A
:10025000383000060E3E0E060000000000000000D0
:10026000005F000000000700070000147F147F14E7
:1002700000242A7F2A12002313086462003649569C
:10028000205000000807030000001C22410000006D
:1002900041221C00002A1C7F1C2A0008083E080876
:1002A00000008070300000080808080800000060A6
:1002B0006000002010080402003E5149453E000045
:1002C000427F4000007249494946002141494D336F
:1002D000001814127F10002745454539003C4A4953
:1002E0004931004121110907003649494936004684
:1002F0004949291E0000001400000000403400009D
:1003000000000814224100141414141400004122A7
:100310001408000201590906003E415D594E007C57
:100320001211127C007F49494936003E4141412269
:10033000007F4141413E007F49494941007F090911
:100340000901003E41415173007F0808087F000009
:10035000417F4100002040413F01007F08142241BD
:10036000007F40404040007F021C027F007F040865
:10037000107F003E4141413E007F09090906003ED1
:100380004151215E007F0919294600264949493219
:100390000003017F0103003F4040403F001F204019
:1003A000201F003F4038403F0063140814630003DF
:1003B00004780403006159494D4300007F414141E5
:1003C00000020408102000004141417F00040201A6
:1003D00002040040404040400000030708000020A5
:1003E00054547840007F284444380038444444281A
:1003F00000384444287F0038545454180000087EC4
:100400000902001824241C78007F080404780000E6
:10041000447D4000002040403D00007F1028440003
:100420000000417F4000007C04780478007C0804D0
:10043000047800384444443800FC18242418001878
:10044000242418FC007C0804040800485454542454
:100450000004043F4424003C4040207C001C204019
:10046000201C003C4030403C004428102844004CF4
:100470001010107C004464544C44000008364100C5
:100480000000007700000000413608000002010271
:100490000402003C2623263C000001010101010169
:1004A000010101020202020202020202030303032B
:1004B00003030303040404040404040505050505FB
:1004C00006060606060707070707080808080909B9
:1004D00009090A0A0A0B0B0B0C0C0C0D0D0D0E0E64
:1004E0000E0F0F0F101011111112121313141415F7
:1004F0001516161717181819191A1A1B1B1C1D1D6B
:100500001E1E1F20202122222324242526262728C0
:1005100029292A2B2C2D2D2E2F30313232333435F0
:10052000363738393A3B3C3D3E3F404142434445F3
:10053000464748494A4C4D4E4F50515354555658D2
:10054000595A5B5D5E5F616264656668696B6C6D7C
:100550006F7072737577787A7B7D7E8082838587F2
:10056000888A8C8E8F91939596989A9C9EA0A2A330
:10057000A5A7A9ABADAFB1B3B5B7BABCBEC0C2C435
:10058000C6C9CBCDCFD1D4D6D8DBDDDFE2E4E7E9F5
:10059000EBEEF0F3F5F8FAFDFFFFAA7F55402223BA
:1005A000252628292A2C2D2F3032333536383A3B50
:1005B0003D3E4042434547494A4C4E5051535557A2
:1005C000595A5C5E6062646668696B6D6F717375C1
:1005D00077797B7D7F81838587898A8C8E909294C1
:1005E00096989A9C9E9FA1A3A5A7A8AAACAEAFB1CE
:1005F000B3B4B6B8B9BBBCBEBFC1C2C3C5C6C7C918
:10060000CACBCCCDCED0D1D2D2D3D4D5D6D7D7D8D1
:10061000D9D9DADADBDBDBDCDCDCDCDCDDDDDDDD23
:10062000DCDCDCDCDCDBDBDBDADAD9D9D8D7D7D62B
:10063000D5D4D3D2D2D1D0CECDCCCBCAC9C7C6C5E2
:10064000C3C2C1BFBEBCBBB9B8B6B4B3B1AFAEAC28
:10065000AAA8A7A5A3A19F9E9C9A98969492908ED3
:100660008C8A89878583817F7D7B79777573716FAC
:100670006D6B6968666462605E5C5A595755535188
:10068000504E4C4A4947454342403E3D3B3A38363E
:10069000353332302F2D2C2A2928262523225300AA
:1006A000E100B2002A00000024002500260000001E
:1006B0000000210022002300000000001E001F0097
:1006C0002000570028002700630055005600540002
:1006D0001E001F002000A8000000210022002300AF
:1006E0000000000014001A000800000000000400D0
:1006F000160007002B0028001D001B0006002C0020
:10070000E100460049004C00390000003A003B007F
:100710003C00000000003D003E003F0000000000E3
:100720004000410042004B002A00430044004500C5
:100730004E0028003A003B00C25CC25C0000C55C71
:10074000C75CC95C00000000C65CC85CCA5C0000F5
:100750000000CD5CCE5CCF5C0100C35C01000100F9
:1007600001000100C45C00AF0000000000000000B8
:100770000000000000000000000000000000000079
:100780000000000000000000000000007E0F00D408
:10079000FFFFFFC70000007800000000000000001D
:1007A0002A2B2800000000000000000000000000CC
:1007B00000000029000000002C1E342021222434D7
:1007C0002627252E362D3738271E1F2021222324A9
:1007D00025263333362E37381F0405060708090A45
:1007E0000B0C0D0E0F101112131415161718191AE1
:1007F0001B1C1D2F3130232D350405060708090A5F
:100800000B0C0D0E0F101112131415161718191AC0
:100810001B1C1D2F3130354C00DA12817FD9F1DBE2
:1008200020A4A62EAF00A0C000A1C800AED580A80D
:100830003FD300408D1420001E0F0500047F3F1F92
:10084000643214643214783C1E1E140A0500AE098A
:10085000025B00030100A0FA09040000010301018A
:100860000009211101000122400007058103080051
:100870000A0904010002030000000921110100011E
:100880002222000705820320000107050303200040
:100890000109040200010300000009211101000107
:1008A000226D000705840320000A120110010000D8
:1008B0000008FEFE33230100010200010C034E007C
:1008C00050005F0030003100000010034B00490071
:1008D00052004900540052004F0000000403090474
:1008E00011241FBECFEFDAE0DEBFCDBF04B603FE9A
:1008F00027C08091D0099091D109A091D209B091DF
:10090000D3098730904BA740B04BD1F41092D00957
:100910001092D1091092D2091092D30914BE84B753
:10092000877F84BF0FB6F894A89580916000886196
:1009300080936000109260000FBEE0E0F8E309953C
:1009400029E0AEEAB3E001C01D92A03DB207E1F795
:1009500013E0A0E0B1E0EAE6F3E602C005900D92F4
:10096000AE3AB107D9F70E94DF260C947C310C9483
:10097000000021E08F3791050CF420E06F33710502
:100980000CF0246081E0211101C080E00895E8EDC1
:10099000F0E080818E7F80831092E2001092DA0076
:1009A0001092E100A0EEB0E08C9181608C93808188
:1009B0008F77808319BCA7EDB0E08C918E7F8C93EC
:1009C00080818F7E808310929A0908952091E4009F
:1009D0003091E50095E6A9012091EC00822F81700D
:1009E00020FF06C08091E80080FF06C080E00895E7
:1009F0002091E80022FD1AC08091BF09882389F068
:100A0000853089F08091EB0085FD0FC02091E400D6
:100A10003091E50042175307F9F29150E1F684E076
:100A2000089582E0089583E0089581E00895EF92AB
:100A3000FF920F931F93CF937C018B010E94E604DA
:100A4000C82F811117C08091E80085FD0BC08091EF
:100A5000E8008E778093E8000E94E604882399F3EB
:100A6000C82F08C0F70181917F018093F1000150E8
:100A7000110949F78C2FCF911F910F91FF90EF90A3
:100A800008958091C10987FF13C08091E80082FF1B
:100A900006C08091E8008B778093E80004C08091C5
:100AA000BF098111F2CF08958091BF098823D9F33E
:100AB0008091E80080FFF8CF8091E8008E77ECCF3E
:100AC000982F9093E900242F762F50E0891731F06A
:100AD0007091EC002091ED005091F00021FD07C0D5
:100AE0009F5F973071F78093E90081E0089530911E
:100AF000EB003E7F3093EB003091ED003D7F309373
:100B0000ED003091EB0031603093EB007093EC001E
:100B10002093ED005093F0002091EE0027FDE0CFF0
:100B200080E00895CF92DF92EF92FF920F931F9390
:100B3000CF93DF93C8EDD0E088818F7E8883E7ED87
:100B4000F0E080818160808384E082BF81E08093D7
:100B50009A0988818E7F888302EE10E0F801108266
:100B60001092DA0081EEC82ED12CF6011082888115
:100B70008F77888388818068888388818F7D888348
:100B800019BC1092BF091092C0091092BE091092B0
:100B9000BD0990EEE92EF12CF70180818B7F8083D7
:100BA00088818160888342E060E080E00E94600587
:100BB000F60180818E7F8083F8018081816080834F
:100BC000808188608083F70180818E7F8083888127
:100BD00080618883DF91CF911F910F91FF90EF90FB
:100BE000DF90CF900895FC018091C7099091C809CA
:100BF00086179707A0F06115710529F49091E80018
:100C00009E779093E80090E06115710551F4911181
:100C100008C08091E80082FF34C080E00895BC01E4
:100C2000F2CF8091BF098823C1F18530C1F1809155
:100C3000E80083FD30C08091E80082FDEACF80911A
:100C4000E80080FFE1CF8091F3002091F200382F7F
:100C50006115710519F02830310558F091E0283000
:100C6000310509F090E02091E8002E772093E8000C
:100C7000CBCF81918093F100615071092F5F3F4F7D
:100C8000E7CF8091BF09882341F0853041F0809102
:100C9000E80083FFBECF81E0089582E0089583E0FD
:100CA0000895089580E00895089580919C0908951D
:100CB0009C014FB7F89480911F0590912005A09159
:100CC0002105B09122054FBF821B930B08952FB7CA
:100CD000F89460911F0570912005809121059091F5
:100CE00022052FBF089580911A05811110921A05CF
:100CF00008958091190590911805892B90911705F9
:100D0000892B8093B00390911A059923A1F0892B28
:100D10008093B00380916402882341F18091230580
:100D200087FF24C08EE1E2EBF3E090E0815000F514
:100D300091110E947306E0913805F09139053097C2
:100D4000E1F080916402882359F08091230587FFA8
:100D500007C08091B0038093B10385E08093B00316
:100D60000280F381E02D80EB93E0099486E0DBCFF5
:100D700021912223D9F29F5FD9CF089590916402E7
:100D80009923D1F09091230597FF16C0E82FE6959F
:100D9000E695E695EE31E0F4F0E0E055FC4F282FC3
:100DA000277081E090E001C0880F2A95EAF78095CE
:100DB0009281892382830895E2EBF3E09191891374
:100DC00003C0DF0111971C9293E0E83BF907B1F7EC
:100DD0000895909164029923C1F09091230597FFA3
:100DE00014C0E82FE695E695E695EE31F8F4F0E0CC
:100DF000E055FC4F877021E030E001C0220F8A955A
:100E0000EAF78281822B82830895A2EBB3E0EFEFB1
:100E100090E02D91821751F0EF3F19F4211101C09C
:100E2000E92F9F5F9630A9F7EF3F09F408950E2E42
:100E3000000CFF0BE055FC4FE6CFE92FEE0FEE0F55
:100E40009E0F890F982F977086958695869525E039
:100E5000829FF0011124EE5FFA4F50E040E080E005
:100E6000219130E0092E02C0369527950A94E2F7C9
:100E700021703327042E01C0220F0A94EAF7822B37
:100E80004F5F5F4F4530510559F70895E92FEE0F39
:100E9000EE0F9E0F890F982F977041E001C0440F0D
:100EA0009A95EAF786958695869595E0899FF00153
:100EB0001124EE5FFA4F30E020E070E05191DF0145
:100EC0001197CB01022E02C0969587950A94E2F7FE
:100ED000817081958527842385278C932F5F3F4FD1
:100EE0002530310559F708954091CC095091CD092D
:100EF0006091CE097091CF094115510561057105C9
:100F000029F441E0811140E0842F089504C07695D2
:100F10006795579547958A95D2F74170F5CF80919F
:100F200001059091D004981301C008958F5F8770D8
:100F3000FACF882341F080959091180589238093FA
:100F400018050C9479060895882339F090911805B6
:100F5000982B909318050C9479060895882341F0F6
:100F60008095909119058923809319050C94790631
:100F70000895882339F090911905982B90931905BD
:100F80000C94790608952091B0043091B10428178B
:100F9000390771F09093B1048093B004E091380563
:100FA000F0913905309721F00084F185E02D099406
:100FB00008952091AE043091AF042817390771F0DD
:100FC0009093AF048093AE04E0913805F091390519
:100FD000309721F00680F781E02D0994089590E084
:100FE00080E00E94D90790E080E00E94C307109241
:100FF0001805109217050C9479066093CC0970932C
:10100000CD098093CE099093CF090C94EF070F93ED
:101010001F936091CC097091CD098091CE09909178
:10102000CF098B019C010670112722273327063038
:1010300011052105310529F468601F910F910C9469
:10104000FD07677FFACF0F931F9341E050E060E008
:1010500070E004C0440F551F661F771F8A95D2F7B2
:10106000CB01BA0160957095809590950091CC095F
:101070001091CD092091CE093091CF0960237123C1
:10108000822393231F910F910C94FD0790911605D5
:101090008095892380931605282F277039F4282FEF
:1010A000082E000C330B9217130621F4909124059F
:1010B00092FF07C08595859585950E94230810921B
:1010C000160508950F931F9341E050E060E070E033
:1010D00004C0440F551F661F771F8A95D2F7809171
:1010E000CC099091CD09A091CE09B091CF098A0188
:1010F0009B01082B192B2A2B3B2BC901B8011F91EF
:101100000F910C94FD0760931B0570931C05809351
:101110001D0590931E050C94EF07E0913805F091A2
:101120003905309721F00190F081E02D099480E09D
:101130000895882309F452C0823871F40E948D0802
:1011400081FF4CC089E30E94E9060E94790689E389
:101150000E94BE060C947906833859F40E948D08CB
:1011600080FF3CC083E50E94E9060E94790683E582
:10117000EFCF843859F40E948D0882FF2FC087E496
:101180000E94E9060E94790687E4E2CF9CEF980F5F
:10119000913AF0F290E2980F983088F4877021E04D
:1011A00030E0A90102C0440F551F8A95E2F7CA0139
:1011B000809590911905892380931905CBCF9BE5E4
:1011C000980F933020F490E080E00C94D907885A6F
:1011D000873120F490E080E00C94C30708953091AB
:1011E00037058317A0F590E0262F2695269526959E
:1011F000239F800D911D1124811524E092073CF559
:10120000FC01E358FA4F5081677021E030E001C0E3
:10121000220F6A95EAF74423D9F0252B2517B9F058
:10122000208326E0969587952A95E1F721E030E026
:1012300002C0220F331F8A95E2F780917F099091B7
:101240008009822B932B9093800980937F090895C6
:1012500020952523E3CFFA01811101C0FB010994F8
:101260008091900980FF02C08695089580E00895DE
:1012700080919009982F9E7F61F4817082608093A5
:10128000900980919309813818F080E88093930940
:1012900008958635B0F381708465F1CFAF92BF9227
:1012A000DF92EF92FF920F931F93CF93DF93182F4C
:1012B000062FE901413808F040E8E42FF0E0E75656
:1012C000FB4F011110C0E4915E2F4E2F4983E8833C
:1012D0005A83DF91CF911F910F91FF90EF90DF9094
:1012E000BF90AF900895202F30E04491D42EE42E8B
:1012F000F12C56E0159FC0011124EFEFF0E0BF0183
:101300000E942430812F90E0880F991F55E5569F49
:10131000D001579FB00D11248A1B9B0B982F990F5A
:10132000890F5F01A21AB30AAE9CD001AF9CB00D29
:10133000BE9CB00D11245B2F089F80011124012F4A
:1013400011275F01A01AB10AAE9C8001AF9C100D5D
:10135000BE9C100D11245F01A81AB108A29EC00105
:10136000A39E900DB29E900D1124892F9927E81B02
:10137000F90BEE9DC001EF9D900DFE9D900D112487
:10138000E92F62307105A1F050F46115710509F47F
:101390009DCF6130710581F0EB2F512F97CF6430D5
:1013A000710569F080F06630710509F48FCFF4CFD4
:1013B000E42F4B2F592F8ACFE42F412F87CFEB2FCC
:1013C000542F492F83CF4B2F5D2DE12F7FCFF894E2
:1013D000E82FE295EF70F0E031A1282F2F7081E027
:1013E00090E001C0880F2A95EAF7982F90959323F3
:1013F00091A392A1892B82A37894089590912305BB
:1014000092FF06C0282F28712830F9F4877F846066
:1014100093FF06C0282F28712831F1F4877E84615C
:101420002091240520FF06C0382F38713830D9F4B8
:10143000877F816021FF06C0282F28712831D1F4D1
:10144000877E816194FD877E0895282F2471243042
:10145000F9F68B7F8860DCCF282F2471243101F7C7
:101460008B7E8861DDCF382F3171313019F78E7F57
:101470008860E0CF282F2171213121F78E7E88618D
:10148000E1CFCF93DF939C013A9521153F4168F559
:10149000EC01CC27D170DC01AA27B270AC01442743
:1014A00054709C012227387094FF11C080E1CD2B2D
:1014B00009F480E0AB2B09F08062452B09F08064D1
:1014C000232B09F08068FB01DF91CF91099481E023
:1014D000CD2B09F480E0AB2B09F08260452B09F09D
:1014E0008460232B81F38860EECFDF91CF91089544
:1014F0002F923F924F925F926F927F928F929F9224
:10150000AF92BF92CF92DF92EF92FF920F931F9311
:10151000CF93DF9300D000D000D0CDB7DEB7202E20
:1015200050E0482E512CCA01841995099E838D8361
:1015300030E0662E712C8901061917091816190654
:101540000CF449C0B12CA12C892B41F0C201841BA1
:10155000950B9E838D83AA24AA94BA2C81E090E0F7
:101560001016110644F001151105C9F18301021B83
:10157000130B8FEF9FEF9A838983ED80FE80E01637
:10158000F1060CF47801912C812CD12CC12C312C3A
:10159000C70101969C838B838B819C813816190629
:1015A00009F104F126960FB6F894DEBF0FBECDBF49
:1015B000DF91CF911F910F91FF90EF90DF90CF902F
:1015C000BF90AF909F908F907F906F905F904F9063
:1015D0003F902F900895AA24A394B12CBFCF1A82D4
:1015E0001982CBCF40E0211001C041E0662D842D4F
:1015F0000E94EF088D819E81C80ED91E800E911E1B
:10160000EC14FD0424F4CE18DF084A0C5B1CE8142B
:10161000F90434F48E189F0889819A81680E791E26
:101620003394BACFEF92FF920F931F93CF93DF9330
:10163000182FD62FF42EC22F6217A8F4262F0E943F
:10164000780A2C2F412F6D2F812F0E94780A2C2F82
:101650004F2D6D2F8F2D0E94780A2C2F4F2D6C2F20
:10166000812F0E94780ADF91CF911F910F91FF90F7
:10167000EF9008952F923F924F925F926F927F92D8
:101680008F929F92AF92BF92CF92DF92EF92FF9292
:101690000F931F93CF93DF9300D000D000D00F9211
:1016A000CDB7DEB76B01603871050CF059C06B83A4
:1016B000622E712CB3016C0D7D1DF22E6138710507
:1016C0001CF020E8F22EFC180695069506950C8372
:1016D00049838E839F83212C8601AE80BF80F501D4
:1016E00031915F013D83302E85E6882E82E0982E71
:1016F000412CF40181914F01FD81F823FA83598037
:10170000540C652D70E0C8010E94B9043A8133235E
:1017100051F0EE2051F081110BC040E0652D832D7A
:101720000E94EF0805C0EE20B1F341E08823B1F339
:10173000439488E04812DDCF0F5F1F4F802F9B81BD
:10174000891B8F1560F22394E981E85FE9838E811C
:101750009F81860D971D9F838E839C819211BCCFA4
:1017600027960FB6F894DEBF0FBECDBFDF91CF91A5
:101770001F910F91FF90EF90DF90CF90BF90AF90AF
:101780009F908F907F906F905F904F903F902F90A1
:1017900008955F926F927F928F929F92AF92BF92C5
:1017A000CF92DF92EF92FF920F931F93CF93DF932D
:1017B00000D000D000D0CDB7DEB7182FF02E822E8B
:1017C000912C7AEF72039001112421583F4F821718
:1017D000130609F054F5683340F56A01840E951E2E
:1017E00086E0582E3E0187E0680E711CA62EB12CB3
:1017F000D601ED916D01E59DF0011124E756FE4FF4
:10180000DE011196CD0124912D9331966A167B0647
:10181000D1F7612F70E0EF2C08E026E0A5010E94CF
:101820003A0B1A5FC814D90419F726960FB6F89424
:10183000DEBF0FBECDBFDF91CF911F910F91FF9003
:10184000EF90DF90CF90BF90AF909F908F907F9060
:101850006F905F9008952F923F924F925F926F9298
:101860007F928F929F92AF92BF92CF92DF92EF9230
:10187000FF920F931F93CF93DF930F92CDB7DEB7F5
:10188000482E5B01F62E10E02AE0F1102AC0A114C8
:10189000B10409F411E08DE6E82ED12CC12C3324DB
:1018A0003A94310E9AE0892E912C812F8150990B18
:1018B0003C0120E2222EC116D8F00F90DF91CF918B
:1018C0001F910F91FF90EF90DF90CF90BF90AF905E
:1018D0009F908F907F906F905F904F903F902F9050
:1018E00008951F5F8F2D622F0E940A30F82ECDCFF2
:1018F000832D8C1961E0815018F570E0C5010E94BC
:101900002430CB01B4010E942430582EF1101FC0A6
:10191000C614D704E4F4811118C01130C1F0298233
:1019200000E021E0AE014F5F5F4F642D8E2D0E94DD
:10193000C90B8FEFC81AD80A96E0E90EF52CBBCF79
:101940009AE0699F602D1124D6CFFF24F394805D27
:10195000898300E021E0AE014F5F5F4F642D8E2D43
:101960000E94C90B5F2CE5CFEF92FF920F93CF93AC
:10197000DF93CDE6D2E022E4829FC00111249C01D6
:101980002C5F3E4F790100E023E0A7016981888147
:101990000E94C90B229633E0E30EF11C82E0C939A4
:1019A000D80789F7DF91CF910F91FF90EF900895BD
:1019B000CF92DF92EF92FF920F931F93CF93DF931B
:1019C0006C017B0164E670E088E70E94272FEC0140
:1019D00097FD12C010E000E0F601E00FF11F8491C6
:1019E00064E670E00E94832FEC01892B29F40F5FDD
:1019F0001F4F0E151F0581F70E940630CE01DF91A3
:101A0000CF911F910F91FF90EF90DF90CF900895AD
:101A1000CF93C0918509809186098823D1F00E94D7
:101A20006706605A75418F4F9F4F6093810970938D
:101A300082098093830990938409C11108C062E0F0
:101A400070E086E697E00E94D80C892B29F0C091BF
:101A500085098C2FCF91089581E080938509F7CF78
:101A6000CF9384E090E00E94D130C82F82E290E0D2
:101A70000E94D130982F8C2FCF9108950F931F93F0
:101A8000CF93DF93C42FD0E0CC0FDD1F2AE0629FFD
:101A9000C00DD11D112432E3839FC00DD11D11242F
:101AA000CE0187960E94D130082F10E0102F00271A
:101AB000CE0188960E94D1309801282BC901DF9170
:101AC000CF911F910F910895462F843038F47530CF
:101AD00028F4653018F4672F0C943E0D90E080E0F8
:101AE0000895CF93DF930E94640DEC018238910535
:101AF000A9F1D8F58133910509F496C048F58932EA
:101B0000910509F48AC08A9709F495C0C11522E5A8
:101B1000D20708F0B6C0C11531E5D30708F026C1D9
:101B2000C83ED10508F09CC0C03ED10560F5C83A5A
:101B3000D10508F087C0C53AD10508F0EFC0C13023
:101B4000D10509F12097F9F0C430D105E0F440C087
:101B50008533910509F45AC0C997C1F680912305D0
:101B6000837089F0C0EED0E00EC0833E910599F1FC
:101B700070F4803E910501F1823E910539F6809125
:101B8000230582FD21C0CE01DF91CF910895863ECD
:101B9000910561F1873E910571F1843E910509F04F
:101BA000B5CF8091240581FFEECF80912305C7EE4C
:101BB000D0E084FD0DC0E7CF8091230580FD07C1F3
:101BC0009091240590FFDFCFC3EED0E084FFDBCF00
:101BD000D0E0C0E0D8CF8091230582FDFBC090917A
:101BE000240590FDBFCF84FFCECFF2CF8091230597
:101BF00083FDDDCFC8CF8091230583FDEEC090919A
:101C0000240591FFF0CFC4EED0E0BDCF8091230535
:101C100085FFB9CFC9E2D0E0B6CF8091230585FF1B
:101C2000B2CFC5E3D0E0AFCF8091230586FFABCF25
:101C3000CAE2D0E0A8CF8091230586FFA4CFC1E3FC
:101C4000D0E0A1CFCF3BD10518F6C85AD0E0CC0FD9
:101C5000DD1FC953DD4F0990D881C02DD46493CFC7
:101C6000C11540E5D40708F064C0C11580E4D80769
:101C700008F05CC0CE019A9581159F4108F483CF8E
:101C8000A7CFC11536E5D30718F5C11545E5D4072B
:101C900008F084C0C11584E5D80708F07AC09C2FED
:101CA000969596959E0123703327C115D34508F468
:101CB00062C0C1E0D0E002C0CC0FDD1F2A95E2F780
:101CC00030E2939FC0011124C82BD92BDA685BCF77
:101CD000C1158AE5D80778F4C11599E5D90708F048
:101CE00068C0C11528E5D20708F472CFDC2FCC27D5
:101CF000C06FD06A48CFCE0190568115904208F04F
:101D000067CF8D2F8F710E94FE0990E0982F882752
:101D100088279F719C012C2BE90149C0C55AD0E04E
:101D2000CC53DD4FC881D0E0D0642DCFDF70D06AB6
:101D30002ACFCE01E4E096958795EA95E1F7837086
:101D40002C2F26952695237040E2249F9001112484
:101D5000382B8C2F8370C1E0D0E002C0CC0FDD1F88
:101D60008A95E2F7C22BD32BDC680DCFDC2FCC2772
:101D7000C16FD06A08CFC1E0D0E002C0CC0FDD1F38
:101D80002A95E2F720E2929FC0011124C82BD92B9B
:101D9000EBCFDC2FCC27C46FD06AF5CE8C2F0E94FE
:101DA000FE09C82FD0E0DC2FCC27CC27DF71D06212
:101DB000EACE8C2F8F700E94FE0934E0D695C7952D
:101DC0003A95E1F7CF709C2FEC01D069DCCEC9E3E6
:101DD000D0E0D9CEC2EED0E0D6CEC6EED0E0D3CEA3
:101DE000BF92CF92DF92EF92FF920F931F93CF9308
:101DF000DF938C01C090CC09D090CD09E090CE0942
:101E0000F090CF0980911B0590911C05A0911D05B4
:101E1000B0911E05C82AD92AEA2AFB2ACFE1D0E0D0
:101E2000BC2ED701C6010C2E04C0B695A795979578
:101E300087950A94D2F780FD0EC0219788F7B12CC0
:101E40008B2DDF91CF911F910F91FF90EF90DF903D
:101E5000CF90BF900895B8018C2F0E94710D01970B
:101E600061F3EECFCF93DF93EC010E94F00EBE0141
:101E7000DF91CF910C94710D0E94320F292F2F709A
:101E800092959F7092509E3078F4E92FF0E0E258DE
:101E9000FE4C0C944C30803F19F020F4883E20F426
:101EA00081E00895843FE1F380E00895883EC0F327
:101EB000813FD1F7F5CF822F869586958695089537
:101EC0006F927F928F929F92AF92BF92CF92DF924A
:101ED000EF92FF920F931F93CF93DF938EE9C82E5B
:101EE00086E0D82E93E6E92EF12CE701E297360141
:101EF0001BC0F50185909490692DC8010E94E530C2
:101F0000682DC80101960E94E53082E0A80EB11C40
:101F10000E5F1F4FC017D10761F78AE0680E711C72
:101F20002A96CE15DF0529F08E010A5011095301BA
:101F3000E0CF7E0182E3E80EF11C82E3C80ED11CE3
:101F40008BE2E81681E0F80681F6DF91CF911F91D0
:101F50000F91FF90EF90DF90CF90BF90AF909F9048
:101F60008F907F906F900895CF93C0912405C2FB0E
:101F7000992790F9981781F080FBC2F9C093240546
:101F80006091230584E090E00E94E5306C2F82E2AE
:101F900090E0CF910C94E530CF910895CF93DF93EB
:101FA000CFEED0E060E0CE010E94E5302196C11571
:101FB00084E0D807B9F7DF91CF910895CF93DF93ED
:101FC00000D00F92CDB7DEB79091BF09943011F5D4
:101FD00089837B836A839093E9008FEF9091E80077
:101FE000815095FD06C095ED9A95F1F7000081119D
:101FF000F5CF8091E80085FF0DC050E040E063E040
:1020000070E0CE0101960E9417058091E8008E775E
:102010008093E8000F900F900F90DF91CF9108957B
:10202000BC0184E00C94DE0FBC0183E00C94DE0F55
:10203000CF93DF93EC01809164028823B1F180910A
:10204000230587FF32C060E284E08093E9008FEFD0
:102050009091E800815095FD06C095ED9A95F1F7B5
:1020600000008111F5CF8091E80085FF1BC08091B1
:10207000640270E050E040E0811104C050E040E0B4
:1020800068E070E0CE010E9417058091E8008E772D
:102090008093E80080E2FE01ADE9B9E001900D9285
:1020A0008A95E1F7DF91CF91089568E081E0CDCF87
:1020B00081E08093E00080E28093D8001092C90014
:1020C0008FE19EE40197F1F700C0000087E090EBFC
:1020D000DC018093D0099093D109A093D209B093E9
:1020E000D30988E19CE00FB6F894A895809360002E
:1020F0000FBE90936000FFCFCF93C82F882309F4C1
:10210000A6C08238C1F40E948D0881FDA0C089E379
:102110000E94E9060E9479062FEF81EE94E021509B
:1021200080409040E1F700C0000089E30E94BE06B5
:10213000CF910C9479068338A1F40E948D0880FD1C
:1021400086C083E50E94E9060E9479062FEF81EEA2
:1021500094E0215080409040E1F700C0000083E50A
:10216000E5CF8438A1F40E948D0882FD70C087E419
:102170000E94E9060E9479062FEF81EE94E021503B
:1021800080409040E1F700C0000087E4CFCF8CEFA3
:102190008C0F813A88F580916402882301F1809147
:1021A000230587FF1CC0EC2FE695E695E695F0E049
:1021B000E055FC4F828190E04C2F477021E030E0E9
:1021C00002C0220F331F4A95E2F782239323892B03
:1021D00079F08C2F0E94BE060E94790609C0E2EBBE
:1021E000F3E08191C817A9F323E0E83BF207C9F7B0
:1021F0008C2F0E94E9069CCF80E28C0F883068F417
:10220000C77021E030E001C0220FCA95EAF7809143
:102210001905822B809319058BCFEBE5EC0FE3308A
:1022200040F4F0E0EC53FD4F808190E0CF910C94AE
:10223000D907C85AC73158F4EC2FF0E0EE0FFF1F52
:10224000E953FD4F80819181CF910C94C307CF91C9
:1022500008951F93CF93DF93182FD0E0C0E0893308
:1022600011F4C0E5D0E0812F0E947C10209731F45A
:10227000812FDF91CF911F910C9499088FE99FE0F6
:102280000197F1F700C000002197F0CFCF93DF93C3
:10229000EC01805E9109089720F064EA77E02097CE
:1022A00011F469EB77E0CE010E94410A8C2FDF9197
:1022B000CF910C947C10CF939091C204992321F07C
:1022C000811116C01092C204CF910895EC2FF0E056
:1022D000EE0FFF1FEE54FB4F808191810E9446114B
:1022E0000E947906CF5F8091C204C81778F3EACFC5
:1022F000C0E0F9CF8091900980FD0AC0E6EDF3E0DF
:10230000118210821282339654E0E732F507C1F74A
:10231000549A3BB13F7E2BB120614FB7F89486EDC4
:1023200093E0FC015191CF0168E02BB9000000C09F
:1023300057FF3BB9550F000000C000C000C03BB9BB
:1023400000C06A9591F7F4E087329F0751F74FBFBD
:102350008FE594E00197F1F700C000000895EF9237
:10236000FF921F93CF93DF93EC0186EDE82E83E07D
:10237000F82E10E08C8197014091930960919209A9
:10238000810F0E944E09175F83E0E80EF11C133F96
:1023900089F70E947A119A818C8190FF08C08F5F23
:1023A0008C83DF91CF911F91FF90EF900895815022
:1023B000F7CFBF92CF92DF92EF92FF920F931F93CE
:1023C000CF93DF93FC018281DD24DA9480FD02C08B
:1023D000DD24D39406ED13E0D0E0C0E02BE1B22E73
:1023E000F80111821082128294E0E92EF12CC12CA6
:1023F0008091D3038C0D8C310CF43DC06B2D0E9469
:102400001630892F082E000C990B8C179D0791F41C
:10241000809193098E9DA0018F9D500D112455959B
:10242000479555954795980160919209809191093A
:102430000E944E09CD0CF1E0EF1AF108C9F6219681
:102440000D5F1F4FCB31D10559F60E947A11809153
:10245000D30391E0D91215C0811111C08AE1809394
:10246000D303DF91CF911F910F91FF90EF90DF90F9
:10247000CF90BF90089587FFC5CF855EC3CF8150B1
:10248000EECF90E00196BE010E943830E8CF0F9366
:102490001F93CF93DF93C6EDD3E0FE01118210822C
:1024A0001282339684E0E732F807C1F710E000E0CB
:1024B0008091D403082E000C990B081719078CF192
:1024C00080911802082E000C990B801791074CF18F
:1024D0009E014091930960919209809191090E9417
:1024E0004E090F5F1F4F23960B31110509F70E940C
:1024F0007A11809117029091D403980F9093D4038E
:1025000020911802280F20931802121614F49A3101
:102510001CF0819580931702DF91CF911F910F914D
:102520000895198218821A82DCCF8F929F92AF92FF
:10253000BF92CF92DF92EF92FF920F931F93CF93B0
:10254000DF93EC014C81042F10E09801D8010E9428
:102550006D319B01AC010E9438314B015C01E0E21E
:10256000F0E0E01BF10BA5E5B0E0AC019B010E949F
:1025700038316B017C019F01DF010E9459309B01C2
:10258000AC010E9443319B01AC01280D391D4A1D4D
:102590005B1DC701B6010E944B31F22E822F90E0E5
:1025A00039E23F15D8F143E0249F9001112435957D
:1025B0002795122F109596EDC92E93E0D92E00E0A5
:1025C00085E5E82EEF188E2D01FD8F2D9601412F08
:1025D000609192090E944E090F5F53E0C50ED11C15
:1025E0000B3189F70E947A119C8181E0992319F0BF
:1025F000903219F48FEF8093190280911902890F9C
:102600008C83DF91CF911F910F91FF90EF90DF901E
:10261000CF90BF90AF909F908F90089525E530E0C8
:10262000A901481B590BCA019A01220F331F280F19
:10263000391F37FFBCCF2F5F3F4FB9CFEF92FF92CB
:102640000F931F93CF93DF938C01C6EDD3E0F12C52
:10265000E12CF80194816091920980919109FDE04B
:10266000EF16F104FCF49923F9F09E0140919309CF
:102670000E944E092FEFE21AF20A23968BE1E81628
:10268000F10439F70E947A11F801848190E00196F3
:10269000817099278483DF91CF911F910F91FF90D3
:1026A000EF900895992309F39E0140E0E1CF9091C6
:1026B000900990FF0CC0E6EDF3E0818360834283D4
:1026C000339694E0E732F907C1F70C947A11089534
:1026D0000F931F93CF93DF9300D00F92CDB7DEB748
:1026E0008C018091D50381110AC09E012F5F3F4F5D
:1026F00040E86FEF0E944E098A818093D503F8016C
:102700006481613069F08091D50340E0662361F017
:1027100040E0623011F44091D50380E060E004C0F5
:102720006091D50340E080E00E945713F801848156
:1027300090E0019663E070E00E94383084830F904F
:102740000F900F90DF91CF911F910F910895CF932C
:10275000DF9300D00F92CDB7DEB79091900990FF34
:102760000AC09E012F5F3F4F0E944E094B81698135
:102770008A810E9457130F900F900F90DF91CF9195
:102780000895CF93DF93EC01EC81F0E0E256FA4F2D
:102790004491E0E9F9E0628181810E94A7138C8174
:1027A0008F5F8C83DF91CF910895CF93DF93EC01FE
:1027B000E0E9F9E0438162818C810E94A7138C815A
:1027C0008F5F8C83DF91CF910895109219058091CE
:1027D0006402E2EBF3E0882359F08091230587FF40
:1027E00007C08EE1DF011D928A95E9F70C94EF078F
:1027F00086E0F8CF1F93CF93DF93CDB7DEB7AA97CC
:102800000FB6F894DEBF0FBECDBF81EC99E02091EA
:10281000F100DC012D93CD01B9E0893C9B07B9F7AC
:102820008091C209833009F471C0B8F4813009F491
:1028300048C0823009F4B2C08091E80083FF3AC1F9
:102840008091C1099091C2099A3008F033C1E92FF3
:10285000F0E0E457FE4C0C944C308A3009F48DC003
:102860008B3009F470C0893039F78091C109813209
:1028700019F78091C5099091C609009711F0029748
:10288000D9F68091E800877F8093E8008091E80086
:1028900082FF37C09091F3008091F200029729F4F3
:1028A0008091F1008B7F813021F48091F100809341
:1028B0009C098091E8008B778093E8000E94410595
:1028C000BBCF8091C109813A09F0B6CF8091E80071
:1028D000877F8093E8008091C5099091C609892B74
:1028E00061F460E28DE999E070E00E94F305809167
:1028F000E8008B778093E8009FCF60E090E080E075
:10290000F3CF8091BF098111C1CF96CF8091C109CA
:10291000813A09F091CF8091C5099091C609892B20
:1029200009F08ACF8091E800877F8093E80080914A
:10293000E80080FFFCCF809164028093F1008091D9
:10294000E8008E77B9CF8091C109813209F074CF48
:102950008091C5099091C609892B09F06DCF8091AE
:10296000E800877F8093E8000E9441058091C309B9
:10297000809364020E94E5135FCF8091C109813288
:1029800009F05ACF8091E800877F8093E8000E9489
:1029900041058091C40980939B094ECF8091C10964
:1029A000813A09F049CF8091E800877F8093E80061
:1029B0008091E80080FFFCCF80919B09BECF8038DA
:1029C00099F0823809F076C08091C5098F70873000
:1029D00008F070C08093E9008091EB0085FB8827A8
:1029E00080F91092E90006C08091BD099091BE095E
:1029F000911182609091E800977F9093E800809316
:102A0000F1001092F1008091E8008E77B5C1882323
:102A100009F4A2C1823009F04DC08091C30981112F
:102A2000A6C18091C5098F702FEF280F263008F0BE
:102A300041C08093E9002091EB0020FF98C19330C2
:102A400031F48091EB0080628093EB0090C1909113
:102A5000EB0090619093EB0021E030E001C0220F89
:102A60008A95EAF72093EA001092EA008091EB0041
:102A70008860EACF81111EC01091C3091F77809131
:102A8000E3008078812B8093E3008091E800877FCA
:102A90008093E8000E9441058091E80080FFFCCF10
:102AA0008091E30080688093E30082E0111183E06D
:102AB0008093BF098091E80083FF0AC08091E800FD
:102AC000877F8093E8008091EB0080628093EB0029
:102AD000AA960FB6F894DEBF0FBECDBFDF91CF919F
:102AE0001F9108958058823028F72091C3093091B2
:102AF000C4092C3DE3E03E07A1F583E08A838AE226
:102B000089834FB7F894DE01139620E03EE051E24E
:102B1000E32FF0E050935700E49120FF03C0E295CB
:102B2000EF703F5FEF708E2F90E0EA30C0F0C796F5
:102B30008D939D932F5F243159F74FBF8091E8000B
:102B4000877F8093E8006AE270E0CE0101960E94E0
:102B5000F3058091E8008B778093E800ABCFC096B7
:102B6000E7CF8091C5099091C609432F552743307F
:102B7000510509F44AC078F54130510509F47AC08D
:102B80008BE590E0EFE4F8E04230510509F092CF98
:102B90002091E800277F2093E8002091C709309119
:102BA000C8098217930708F49C0140E021153105FC
:102BB00009F065C0411163C08091E80082FDC9CF72
:102BC0008091BF09882329F2853019F28091E800AD
:102BD00083FFF2CFBECF4132510509F43CC04232EF
:102BE000510509F067CF8330910508F063CFFC01F0
:102BF000EE0FFF1FEE55FC4F0190F081E02D815646
:102C00009C4FDC018C9190E01AC0332721303105B4
:102C1000D1F02115310561F02230310509F04ACF9C
:102C2000ECEBF8E0E4918E2F90E0ECEBF8E007C0DD
:102C3000ECEDF8E0E4918E2F90E0ECEDF8E00097F9
:102C400009F438CFA5CFEAECF8E0E4918E2F90E0BC
:102C5000EAECF8E0F4CF8330910508F02BCF880F31
:102C6000991FFC01E855FC4F0190F081E02D89E0AF
:102C700090E08ECF82E190E0EAEAF8E089CF80919F
:102C8000BF09882309F465CF853009F462CF8091AC
:102C9000E80083FD5ECF8091E80082FD8DCF8091BA
:102CA000E80080FF83CF9091F3008091F20021151E
:102CB000310519F08830910550F041E0089709F08E
:102CC00040E08091E8008E778093E8006FCF4491D8
:102CD0004093F1003196215031090196E8CF8038B8
:102CE00009F0E8CE8091E800877F8093E80080912A
:102CF000C0098093F10087CE8111DCCE1091C30909
:102D0000123008F0D7CE8091E800877F8093E800EA
:102D10001093C0090E944105112311F084E005C001
:102D20008091E30087FDFACF81E08093BF0942E004
:102D300061EC81E00E94600542E261EC84E00E9467
:102D4000600542E261EC82E00E94600542E260ECD4
:102D500083E00E946005AECE8091C309813009F006
:102D6000A9CE81E0933009F080E08093BE091092F3
:102D7000E9008091E800877F8093E8000E94410588
:102D800099CEEDE7F5E080E094E0DF019C011D9233
:102D900021503040E1F78FEF9FEF909380098093AF
:102DA0007F0908954F925F926F927F928F929F92C8
:102DB000AF92BF92CF92DF92EF92FF920F931F9349
:102DC000CF93DF93FC016280448081E08483EEE94D
:102DD000F5E07490EDE1F6E0E491C7E2D4E036ED81
:102DE000E32E33E0F32E4EEAC42E44E0D42E52E01C
:102DF000A52EBB24B39488248A94912C55245A94EC
:102E0000E7190E2F10E082E0861530F080919109CD
:102E10008883809192098983411021C01B821A8284
:102E200097014A81698188810E944E09259683E035
:102E3000E80EF11CCC16DD0631F7DF91CF911F9122
:102E40000F91FF90EF90DF90CF90BF90AF909F9049
:102E50008F907F906F905F904F900C947A118B8140
:102E60008823E9F081508B83859DC00111246C81FA
:102E700070E00E942430FB01FF27E256FA4F849154
:102E8000E82FE719E59DC0011124B8010E94243004
:102E900080919309689FB00111247A83C1CF0E9469
:102EA000B43020919309269521582A9DA0012B9D8D
:102EB000500D1124452F5527841795070CF0B0CFDE
:102EC00082E0861588F40E94B430B4010E94383044
:102ED00088830E94B430209192092695622F70E079
:102EE0000E943830280F29831A8280919309893CE7
:102EF00020F088EC8C838B8393CF8431D8F784E1E6
:102F0000F9CF6AEE7EEF90E080E00E94033160E04E
:102F100082E090E00E94E53060E083E090E00E9473
:102F2000E53010921B0510921C0510921D051092A1
:102F30001E0560E084E090E00E94E53060E082E2FF
:102F400090E00E94E53060E085E090E00E94E5308E
:102F500060E086E090E00E94E5306FEF87E090E06F
:102F60000E94E53040E050E0BA0188E090E00E9425
:102F7000F73060E08DE090E00E94E53040E050E006
:102F8000BA0188E190E00E94F73060E087E190E0CC
:102F90000E94E53040E050E0BA018CE190E00E94F0
:102FA000F73070E060E080E290E00E94033140E0A2
:102FB00050E0BA0188E190E00E94F73040E050E034
:102FC000BA018FE090E00E94F73040E050E0BA0193
:102FD00083E190E00C94F730CF92DF92EF92FF9272
:102FE0006B017C010E943809B701A60188E090E0DE
:102FF000FF90EF90DF90CF900C94F7305F926F923C
:103000007F928F929F92AF92BF92CF92DF92EF9278
:10301000FF920F931F93CF93DF9300D00F92CDB702
:10302000DEB7182F762E042F622E9091900990FF14
:1030300029C0E92FE695AE2FB0E0A756BD4F8C9181
:1030400080938E099E7F923081F59E012F5F3F4FC6
:10305000812F0E944E094B8169818A810E945713FA
:10306000109391097092920900939309662051F090
:1030700060919009709191098091920990919309C2
:103080000E94EC170F900F900F90DF91CF911F913E
:103090000F91FF90EF90DF90CF90BF90AF909F90F7
:1030A0008F907F906F905F900895823019F4009117
:1030B0009309D6CF863019F410919109D1CF893078
:1030C000D9F3893169F6E9518E2F8170582EE69532
:1030D000F0E0E756FA4FA590B490BB2486EDE82EB9
:1030E00083E0F82ED12CC12C9BE1892E912CC601B6
:1030F000B4010E942430812F511013C0860F970114
:10310000402F672D0E944E09CA0CDB1C83E0E80E9D
:10311000F11C87E2E81684E0F80649F70E947A116C
:103120009FCF861BECCFE0E9F9E0438128E0421B0A
:1031300008F440E021E0628181810C94FE17E0E90F
:10314000F9E0438128E0420F08F44FEF21E062816B
:1031500081810C94FE17E0E9F9E0628128E0621BAE
:1031600008F460E021E0438181810C94FE17E0E9DE
:10317000F9E0628128E0620F08F46FEF21E04381FB
:1031800081810C94FE17E0E9F9E0818121E043811F
:10319000628188500C94FE17E0E9F9E0818121E01A
:1031A00043816281885F0C94FE1780919409882383
:1031B00019F0815080939409609190097091910960
:1031C00080919209909193090C94EC178091940945
:1031D000833018F48F5F8093940960919009709107
:1031E000910980919209909193090C94EC17E0E970
:1031F000F9E083E0808311828FEF828380E883830C
:10320000148260817181828193810C94EC171F92EA
:103210000F920FB60F9211242F933F934F935F930A
:103220006F937F938F939F93AF93BF93CF93DF93CE
:10323000EF93FF93D091E900DF708091EC00C82FED
:10324000C17080FDC0E81092E9008091F000877F96
:103250008093F00078940E94FA131092E900809114
:10326000F00088608093F000CD2BCF70C093E90010
:10327000FF91EF91DF91CF91BF91AF919F918F918E
:103280007F916F915F914F913F912F910F900FBE62
:103290000F901F9018951F920F920FB60F92112446
:1032A0002F933F934F935F936F937F938F939F934E
:1032B000AF93BF93EF93FF938091E10082FF09C02A
:1032C0008091E20082FF05C08091E1008B7F8093B6
:1032D000E1008091DA0080FF24C08091D80080FF57
:1032E00020C08091DA008E7F8093DA008091D9002F
:1032F00080FF9BC080E189BD82E189BD09B400FEE9
:10330000FDCF81E08093BF0980919A09811109C0A6
:103310000E94C7040E9492058091E200846080931D
:10332000E2008091E10080FF17C08091E20080FF01
:1033300013C08091E2008E7F8093E2008091E200D2
:1033400080618093E2008091D80080628093D800F1
:1033500019BC85E08093BF098091E10084FF29C0FA
:103360008091E20084FF25C080E189BD82E189BDB2
:1033700089B5982F917080FFFBCF8091D8008F7D09
:103380008093D8008091E1008F7E8093E10080914E
:10339000E2008F7E8093E2008091E2008160809362
:1033A000E2008091C009882309F445C084E080933D
:1033B000BF098091E10083FF27C08091E20083FF75
:1033C00023C08091E100877F8093E10082E08093B9
:1033D000BF091092C0098091E1008E7F8093E100C7
:1033E0008091E2008E7F8093E2008091E200806114
:1033F0008093E20042E060E080E00E9460058091FE
:10340000F00088608093F000FF91EF91BF91AF9141
:103410009F918F917F916F915F914F913F912F91EC
:103420000F900FBE0F901F90189519BC1092BF09F6
:1034300010929A0976CF8091E30087FD93E09093F4
:10344000BF09B7CF78941F921FB61F9211248F9394
:103450009F93AF93BF9380911F0590912005A091FA
:103460002105B09122050196A11DB11D80931F0574
:1034700090932005A0932105B0932205BF91AF91B1
:103480009F918F911F901FBE1F9018952FB7F89492
:1034900080911F0590912005A0912105B0912205F2
:1034A0002FBF08950F931F93CF93DF93C62FD42F71
:1034B000022FFC0182818823A1F06093CB090E9436
:1034C000461A9093CA098093C909C77081E001C068
:1034D000880FCA95EAF7DF91CF911F910F910C9455
:1034E000B9078091CB09681335C08091C9099091C3
:1034F000CA090E945806883C910560F510E21D0F2C
:10350000CD17B9F080E28C0F883040F4C77081E0AD
:1035100001C0880FCA95EAF70E94AE07183048F438
:1035200081E09D2F977001C0880F9A95EAF70E945D
:10353000B907802F0E942911183098F4D77081E0C4
:1035400001C0880FDA95EAF7DF91CF911F910F91B3
:103550000C94AE07C77081E001C0880FCA95EAF7E6
:10356000F3CFDF91CF911F910F9108956091900952
:10357000669570E04BE050E08CE092E00E94C43031
:10358000892B19F481E080938F090E94461A909349
:103590002F0580932E0508959091900990FF36C0D5
:1035A0009170811129C0926090939009662351F027
:1035B000609190097091910980919209909193097D
:1035C0000E94EC1760919009669570E04BE050E026
:1035D0008CE092E00E94C430892BA9F010928F09F0
:1035E00081E08093310520E0409193096091920938
:1035F000809191090C94FE178B3210F09465D4CF12
:10360000880F982BD1CF0E94B61AEACF08958091E7
:1036100090098695815009F48AE261E00C94CC1AF5
:103620008091900986958F5F8B3208F081E061E090
:103630000C94CC1ACF93C82F83E00E947407882380
:1036400051F0CC2329F00E94101B81E0CF91089506
:103650000E94071BFACF82E00E947407882339F08A
:1036600082E5C11101C081E50E942911EECF81E000
:103670000E947407882329F089EAC111F5CF8AEAEC
:10368000F3CF80E00E9474078111F6CFDECFCF9395
:10369000DF93C82FD62F0E9430098C1730F08D177A
:1036A00020F4DF91CF910C94101B61E08C2FDF91FF
:1036B000CF910C94CC1A2F923F924F925F926F92BF
:1036C0007F928F929F92AF92BF92CF92DF92EF92B2
:1036D000FF920F931F93CF93DF9300D000D00F92F0
:1036E000CDB7DEB78C01FC0183819481892B31F049
:1036F0008081918189238F3F09F01CC70F900F9023
:103700000F900F900F90DF91CF911F910F91FF902D
:10371000EF90DF90CF90BF90AF909F908F907F9071
:103720006F905F904F903F902F9008950E94F00E01
:10373000F82E682F89819A810E94460769817A81D3
:103740008F2D0E94640D7C01F8018281882309F489
:10375000E3C6970122513F452031310508F06DC67F
:103760008FEF93E00E94D130FEEEEF0EFFEE8F2E32
:10377000912C882389F180911605877009F4BECFBA
:10378000F8018281882309F4B9CF82E00F900F906D
:103790000F900F900F90DF91CF911F910F91FF909D
:1037A000EF90DF90CF90BF90AF909F908F907F90E1
:1037B0006F905F904F903F902F900C94460881142B
:1037C00024E09206C1F2C4010E94D130811101C0EF
:1037D000EA943FEF831A930AE110F1CF1C821B8217
:1037E00044244394EAE03E2E74014FEFE41AF40AB5
:1037F000C4010E94D13089831A82882309F4BBCF87
:103800009FEF980F933000F58A83498252E0850E2E
:10381000911CC7010E94D1308B83882309F4ABCF60
:10382000CE0101967C01F70120812223E9F22130AB
:1038300009F049C091818281913041F4F2E0EF0EAC
:10384000F11C0E94291109C04701EACF923049F4C6
:1038500022E0E20EF11C0E947C103FEFE31AF30A13
:10386000E2CF933031F432E0E30EF11C0E9499086C
:10387000F4CF943021F04FEFE41AF40AEECF52E087
:10388000E50EF11C30E020E0B7016F5F7F4FF701DC
:1038900041818053990B8A30910550F021503109B4
:1038A000E0F28FE99FE00197F1F700C00000F6CF4A
:1038B000329EF001339EF00D11249C012E0F3F1F0C
:1038C000842F7B01E1CFE22FF0E0E856F84F5490CF
:1038D000822F86958695869590E0FC01E857F84FF3
:1038E00064902770712C022E02C0759467940A941C
:1038F000E2F7E1E06E227724FC01E858F84FA4904B
:10390000B12C022E02C0B594A7940A94E2F7F1E01C
:10391000AF22BB24FC01E859F84FC490D12C02C05F
:10392000D594C7942A95E2F721E0C222DD246114E0
:10393000710419F081EE0E947C10A114B10419F0F9
:1039400086EE0E947C10852D0E942911AB2819F06B
:1039500086EE0E949908672819F081EE0E94990866
:10396000CD2809F47ACF8CE26CCF81E00E94620806
:103970000E94070800CF81E00E942308F9CF82E06F
:10398000F5CF58EFE5165CE5F50671F48823C1F034
:103990001092C30410921A021092C5041092C4042B
:1039A00081E00E945B1163C590911A02E9EFEE1667
:1039B000ECE5FE0629F4882319F09111E9CF54C5EE
:1039C00050901A02552011F11092C7041092C604AB
:1039D000412C65E0362E88248394912CC090C60437
:1039E000D090C70485E0C816D10488F18091C8043E
:1039F000882309F4F4C00E94461A9093C50480936A
:103A0000C40480E00E945B114110B5CEF3EFEF16C5
:103A1000FCE5FF0609F418C108F09DC538EDE31672
:103A20003CE5F30609F40CC149EDE4164CE5F40657
:103A300009F416C157EDE5165CE5F50609F017C562
:103A400026E241EE61EEC8010E94521A94CE3C9CDF
:103A5000F0013D9CF00D1124E55EFD4F80819181C8
:103A60003FEF20E0E22FF0E0EE0FFF1FE80FF91F1D
:103A700045915491E416F50609F4322F452B11F0C7
:103A80002F5FF0CF3F3FE9F4212C4228552059F019
:103A90003C9CF0013D9CF00D1124E55EFD4F55244A
:103AA000539484818111512C552D5170552E809144
:103AB000C6049091C70401969093C7048093C604EE
:103AC0008DCF2090C304F80192813C9CF0013D9C75
:103AD000F00D1124E55EFD4F8481340101C0660CB8
:103AE0003A95EAF7992309F44CC0682A64822220A7
:103AF00059F2C40102C0880F991F2A95E2F7019775
:103B00006816190611F682819381009731F00E94A0
:103B10004611F1E0F093C804B8CFF2E0CF16D1041B
:103B200031F188F431E0C316D104D1F00E94E513DD
:103B30008FEF94E3ECE081509040E040E1F700C06B
:103B400000000E94581043E0C416D104A9F054E0CC
:103B5000C516D10459F768E070E080E090E004C039
:103B600061E070E080E090E00E94FD07D2CF62E06B
:103B700070E080E090E0F8CF64E070E080E090E0FA
:103B8000F3CFA40102C0440F551F2A95E2F79A0112
:103B9000215031098217130601F5A280B380A114C8
:103BA000B10479F08A2D0E949908C501805E9109BF
:103BB0006EEA77E0089710F069E977E0C5010E94A6
:103BC000410A3C9CF0013D9CF00D1124E55EFD4F47
:103BD000609484816822648258CF212CF2CF4110F6
:103BE0000EC081E00E945B11552009F40FCF1092A6
:103BF000C5041092C40481E08093C30407CFF80188
:103C00008281882309F4B7CD8091C304882309F405
:103C1000B2CD0E94461A9093C5048093C404E091EB
:103C2000C204E83008F0A7CD81E08E0F8093C20473
:103C3000F0E0EE0FFF1FEE54FB4FF182E0829BCDD0
:103C400027E245EE65EEFFCE26E241EE60EEFBCECA
:103C500027E245EE64EEF7CE26E241EE62EEF3CEC9
:103C600028E241E0EFCF80912305806136E0E31642
:103C70003CE5F30609F49FC080912305886047E086
:103C8000E4164CE5F40608F496C0809123058062A2
:103C900092C0809123058D7F5CE0E5165CE5F5061A
:103CA00009F489C078F4809123058C609AE0E916C4
:103CB0009CE5F90609F47FC008F48CC080912305C7
:103CC0008E7F79C080912305877FFEE0EF16FCE5AB
:103CD000FF0609F470C0809123058B7F2FE0E21668
:103CE0002CE5F20608F467C0809123058F7E63C03F
:103CF0003BEFE3163CE5F30609F464C068F553E1D5
:103D0000E5165CE5F50609F477C090F491E1E91653
:103D10009CE5F90609F46CC0E2E1EE16ECE5FE065E
:103D200009F0EAC30E94E513809123058F7743C011
:103D3000F5E1EF16FCE5FF0609F466C008F47AC069
:103D40008091240581603AEFE3163CE5F30609F023
:103D5000D3C380932405D0C34FEFE4164CE5F4069B
:103D600009F44EC088F48DEFE8168CE5F806C1F131
:103D7000809124058E7F9EEFE9169CE5F90648F3B5
:103D8000809124058360E5CFE1E0EE16EDE5FE06C7
:103D900009F459C008F444C060E022E0E2162DE5C1
:103DA000F20609F0A9C38EE090E00E94E530A4C3BA
:103DB000809123058160809323059EC38091230514
:103DC0008460F9CF809124058260C3CF8091230560
:103DD0008064F1CF0E94E513809123058068EBCFCA
:103DE000809124058D7FB5CF809123058F7DE3CF12
:103DF000809123058F7BDFCF80912305837FDBCFED
:103E0000809124058C7FA5CF8091230582FB992783
:103E100090F921E0922790FB82F990FB83F9CBCFB8
:103E200080912405982F909591708E7F892B90FB1F
:103E300081F98FCF0E94E51390912305892F97FB7D
:103E400087F98058B8CF61E0AECF8091190536E18F
:103E5000E3163CE5F30609F09DC38A7A91E009F484
:103E600090E09093C904811106C089E20E94E9069E
:103E70000E94790680CC85E3F9CF85E388C38091E1
:103E8000900980FF1BC08E7F8093900960919009FC
:103E90007091910980919209909193090E94EC1779
:103EA00010928F094FEF50E782E041505040804020
:103EB000E1F700C000000E947A115DCC8160809320
:103EC000900961E086950E94CC1A55CC47E05BE1F1
:103ED00060E17BE10E942B094ECC40E15BE167E0B1
:103EE0007BE1F8CF4CEC58E163EC78E1F3CF4BEA9F
:103EF00058E167EB78E1EECF43E958E16FE978E10B
:103F0000E9CF4FE958E163E978E1E4CF46EE58E1C3
:103F100065ED78E1DFCF61E081E0D5CF65E082E05B
:103F20000E94471B28CC68E086E0FACF64E18FE06E
:103F3000F7CF67E185E1F4CF62E289E1F1CF61E09B
:103F400083E2C1CF3BE5E3163DE5F306A9F04CE57E
:103F5000E4164DE5F40609F04FC38091240582FB79
:103F6000882780F991E089270E94B40F45C30E94F9
:103F7000811701CC81E0F8CF80E0F6CFC7010E9425
:103F80001D07D82E48C32F2D2F70A22E8F2D807F76
:103F900019F0A29490EFA922DD20C9F0AA2069F0BF
:103FA00080E28E0D883010F081100BC080911905D1
:103FB000A82AA09219050E9479068E2D0E947C10D5
:103FC00019C080911805A82AA0921805F4CF8E2D4B
:103FD0000E949908AA2071F0A09480E28E0D88308A
:103FE00010F081103DC080911905A822A0921905FA
:103FF0000E947906E32DE850FF0B349710F40E94DD
:104000008D08CC2009F47ACB8091160580FD76CB03
:10401000F80112828595859585950E946208C801F0
:104020000E945B1B809116058595859585950F905F
:104030000F900F900F900F90DF91CF911F910F91E4
:10404000FF90EF90DF90CF90BF90AF909F908F90B8
:104050007F906F905F904F903F902F900C9423082B
:1040600080911805A822A0921805C2CF3F2D3F705D
:10407000932E8F2D807F803219F0929480EF9822BA
:10408000882071F041E0841681F1DD20D9F1AA2069
:1040900091F1F801858180FF90CF8F7085832BC0CF
:1040A000DD20B1F090911A05892D892BA11003C054
:1040B0000E94B9079FCF51E0A512FACF20912405A5
:1040C00022FD98CF981709F495CF80931A0592CFC7
:1040D000A11006C00E947306892D0E94AE078ACFE8
:1040E00081E0A81609F486CFF5CFDD2031F095E008
:1040F0009A1508F47FCF892DDBCFE4E0EA1508F4A8
:1041000079CFEACFAA2041F3F9E38F128FC12FEFC5
:1041100037EE43E0215030404040E1F700C000005E
:1041200085C18F2D86958695837061F0813009F069
:1041300061CFC7019370D11002C090E080E00E946F
:10414000C30758CFC7019370D11002C090E080E040
:104150000E94D9074FCF8F2D837009F066C0D11010
:1041600049CF8E2D829586958770880F880F6E2D8A
:104170006F70462E512C712C612C082E04C0440CFB
:10418000551C661C771C0A94D2F740E050E0BA0137
:10419000E4FE0FC04FE050E060E070E004C0440F68
:1041A000551F661F771F8A95D2F7409550956095E9
:1041B00070958F2D869586958370823019F1D8F48D
:1041C00080901B0590901C05A0901D05B0901E05C9
:1041D000813069F04429552966297729CB01BA0134
:1041E000682179218A219B210E94830803CF4828D6
:1041F00059286A287B28CB01BA01642975298629A8
:104200009729F2CF442955296629772940901B0523
:1042100050901C0560901D0570901E05CB01BA01E1
:104220006425752586259725DFCF8695DD2011F03D
:104230008F2D8170882309F4DDCE8E2D8295869591
:104240008770880F880F6E2D6F70462E512C712C41
:10425000612C082E04C0440C551C661C771C0A9463
:10426000D2F740E050E0BA01E4FE0FC04FE050E06A
:1042700060E070E004C0440F551F661F771F8A95E9
:10428000D2F740955095609570958F2D86958695BF
:104290008370823019F1D8F48090CC099090CD09C8
:1042A000A090CE09B090CF09813069F044295529FA
:1042B00066297729CB01BA01682179218A219B21BE
:1042C0000E94FD0797CE482859286A287B28CB01F1
:1042D000BA016429752986299729F2CF44295529DD
:1042E000662977294090CC095090CD096090CE097D
:1042F0007090CF09CB01BA016425752586259725D5
:10430000DFCF5F2D5F70F52EDD2029F0852F0E9415
:1043100062088E2DCDCE8E2D0E94AE078F2D0E946D
:10432000230868CE8E2D92EF891609F456C0981591
:1043300078F0E0EF8E1641F1F1EF8F1609F445C0E9
:10434000DD2009F46EC0A11038CE8F2D8F7142C0D0
:1043500023EF821609F446C034EF8312F1CFDD203B
:1043600009F454C08F2D8F71F82E0E94620880913D
:10437000240582FD07C0E8E0FE9EC0011124836091
:10438000809316058F2D26C0DD20D1F044E04A151C
:1043900008F430CE2F2D2F7161E070E080E090E0C6
:1043A00004C0660F771F881F991F2A95D2F7409087
:1043B000CC095090CD096090CE097090CF099CCF68
:1043C00055E05A1508F416CEE5CF8F2D8F71DD20FC
:1043D00009F4A5CF0E9462080DCE8F2D8F71DD20CC
:1043E000C9F39DCF60E070E0CB01DD2009F468CF18
:1043F0002F2D2F7161E070E080E090E004C0660F27
:10440000771F881F991F2A95D2F75ACF81E00E9403
:104410004608F1E0FA1508F0EDCD82E00E9446086A
:10442000E9CDAA2039F0893309F471CE8E2D0E948E
:104430009908E0CD8F2D8F7172CFF0E1EF16FFE577
:10444000FF0609F492CA21E1E2162FE5F20609F40B
:1044500096CA1092C80447EFE4164CE5F40609F03A
:1044600090CA882309F4ACCA81E080931A02F8014B
:104470008281882309F481C01092CB09F2E0EF1603
:10448000FCE5FF0608F4E1CC26E1E2162CE5F20695
:1044900030F0C7018A5F9C45099708F0D6CC0E948E
:1044A000300D909324058093230530E1E3163CE51D
:1044B000F30609F499CC08F01BCC58E0E5165CE54E
:1044C000F50609F483CC08F0E4CB94E0E9169CE50A
:1044D000F90609F473CC08F0C6CBF2E0EF16FCE560
:1044E000FF0609F465CC80912305826023E0E21683
:1044F0002CE5F20609F45FCC60912305F0902405C9
:1045000084E090E00E94E5306F2D82E290E00E940E
:10451000E5300E94E5132FC930E1E3163FE5F306CD
:1045200009F429CA41E1E4164FE5F40609F091CFF8
:1045300082E022CA85E0DE01119601900D928A95F3
:10454000E1F7F801228189819A812111EFC80E9447
:104550001D07F82EF3C885EFE8168CE5F80609F478
:104560007BCB08F475CB27E245EE66EEE6EFEE1660
:10457000ECE5FE0609F467CA7ACFF6E1EF16FCE532
:10458000FF06D1F58091C904811177CC89E20E94A0
:10459000BE066ECC82722CECE2162CE5F20609F413
:1045A000B5CC08F0A5C046ECE4164CE5F40609F4D9
:1045B00099CC08F074C093ECE9169CE5F90609F46F
:1045C00085CC08F05BC0F2ECEF16FCE5FF0609F4C1
:1045D00056CC9AE5E9169DE5F90609F4CBCC08F02E
:1045E000B1CCE114FCE5FF0609F4A0CA2EEDE216F9
:1045F0002CE5F20609F4BBCCF8018281E080F18061
:10460000882309F4BBCCC7010E94F00ED82E682F76
:10461000C7010E944607B7018D2D0E94710D7C01D4
:10462000882EF801D280A580A2943FE0A322809139
:1046300016058770A1F0CD2CDD2091F08F2D807FA5
:10464000803421F080E28E0D883048F082E00E94B4
:104650004608809116058770CC24C3948111C12C23
:104660003F2C32942FE03222FBE0F31508F4C2CC49
:10467000E32DF0E0EA56FE4C0C944C3024ECE216AC
:104680002CE5F20609F429CC43EC58E16CEC78E116
:1046900035ECE3163CE5F30609F41CCC9ACF49EC63
:1046A000E4164CE5F40609F427CC88F497ECE916F7
:1046B0009CE5F90609F41BCC47EB58E16BEA78E17D
:1046C000E8ECEE16ECE5FE0609F404CC82CFFAEC39
:1046D000EF16FCE5FF0609F414CC45ED58E166EE53
:1046E00078E12BECE2162CE5F20609F4F3CB71CF5E
:1046F00031EDE3163CE5F30609F418CCB8F45EECB2
:10470000E5165CE5F50609F409CC08F404CC9FEC49
:10471000E9169CE5F90609F406CC6EE089E0E0EDC7
:10472000EE16ECE5FE0609F4FBCB53CFF4EDEF16E5
:10473000FCE5FF0609F400CC78F432EDE3163CE525
:10474000F30609F4F6CB61E088E143EDE4164CE5AD
:10475000F40609F4B8CB3DCF55EDE5165CE5F5065A
:1047600009F4EDCB8DE5E816F80609F032CF6AE2E0
:1047700085E2D6CB1F93CF93DF938091CF04807FC8
:10478000A9F48091CC04882389F080910105D0910F
:10479000D0046091CA047091CB04A091CD04B09173
:1047A000CE04C62FC72316E0D81304C0DF91CF91E3
:1047B0001F91089590E0109711F0CF3F19F40196E2
:1047C0008770F2CF189F9001199F300D1124F901C5
:1047D000EF52FB4F41814713F2CF40814613EFCF99
:1047E00042814111ECCF438154814A1B5B0B483C11
:1047F000510528F78091CF048F7080618093CF049A
:10480000F901EA52FB4F80818F70806180838AECCE
:1048100094E00E945B1BDF91CF911F910C948F0756
:10482000AF92BF92CF92DF92EF92FF920F931F93BE
:10483000CF93DF93CDB7DEB761970FB6F894DEBFA5
:104840000FBECDBF8C0185E0F801DE011D96019001
:104850000D928A95E1F7F80180819181E2802AEC3E
:10486000A22E24E0B22E6091CD047091CE04611589
:10487000710509F43EC13091CA044091CB04232F45
:1048800024232F3F09F435C1C380D480F090CC0499
:10489000F601E61BF70BFF2009F4FBC02091CF04C3
:1048A000522F507FE83CF10508F0BBC0511178C091
:1048B000FE2C491321C038131FC0E1101DC02F70FA
:1048C00020612093CF04C5010E945B1B8091CF041F
:1048D000F80185838F2D61960FB6F894DEBF0FBE69
:1048E000CDBFDF91CF911F910F91FF90EF90DF909F
:1048F000CF90BF90AF900895CD2829F0282F29237D
:104900002F3F09F014C120E0F22FF170DF2E20FFBD
:104910003DC0209101054091D00456E0241315C0FC
:104920008D879E878D859E850E94320F292F229527
:104930002F702230F8F0243020F59F70F9F0F80144
:104940009581907FD9F4D12C1FC030E0529FF001A7
:10495000539FF00D1124EF52FB4F6181961306C057
:104960006081861303C06281E61210C02F5F3F4F43
:104970002770D4CF9F7011F0882329F3805E883090
:1049800010F3C8010E945B1BFD2CA4CFEE2009F49C
:10499000A1CF8091CF0481608093CF04F12C9ACF76
:1049A000491312C0381310C0E1100EC0F80125835E
:1049B000C8010E945B1B86E0F801AAECB4E00190FC
:1049C0000D928A95E1F786CF8D879E878D859E858E
:1049D0000E943C0F882309F1EE20F9F08091CF046A
:1049E000803270F02091CA043091CB0438872F8335
:1049F0001986DB86CA868C87CE0107960E945B1BD0
:104A000086E0F801AAECB4E001900D928A95E1F7F6
:104A10000E94BA23FF24F3945DCFC8010E945B1B60
:104A2000F9CF51110AC08AEC94E00E945B1B86E02A
:104A3000F50111928A95E9F7B1CF49130FC03813E8
:104A40000DC0E1100BC0F8012583C8010E945B1B5B
:104A500086E0F50111928A95E9F73CCF8D879E8714
:104A60008D859E850E943C0F8823B9F2EE20A9F225
:104A70008091CF04803220F22091CA043091CB047F
:104A80003A8329831B82DD82CC828E83CE010196FC
:104A9000B5CFE83CF105E0F6FE2CEE2009F4BDCFE1
:104AA000491316C0381314C08091CF0480FD83CF02
:104AB000982F907F09F47FCFF8018583903F09F408
:104AC00077CF982F907F905F8F70892B858370CFE1
:104AD0008D879E878D859E850E943C0F811190CF8A
:104AE0008091CF0481608093CF04C8010E945B1B3A
:104AF000F1CEEE2009F491CF8D879E878D859E851E
:104B00000E943C0FF82E882309F487CF86E0F80135
:104B1000AAECB4E001900D928A95E1F78091CA0465
:104B20009091CB040E94320F0E94BA23D3CE21E091
:104B30002E25EACE1F93CF93DF93CDB7DEB76797CD
:104B40000FB6F894DEBF0FBECDBF342F4B8B252F91
:104B50005C8B6D8B7E8B8F8B8E899F896111109200
:104B600018051A8A198A3D872E876F87998B888B3B
:104B700086E0FE013D96DE01179601900D928A9522
:104B8000E1F7CE0107960E941024882389F016E0F1
:104B9000809101059091D004891349C067960FB6A2
:104BA000F894DEBF0FBECDBFDF91CF911F91089566
:104BB00086E0FE013796DE01119601900D928A95EE
:104BC000E1F78A859B85892B11F38F81988589234D
:104BD0008F3FE9F22091D00430E0C901019687703F
:104BE0009927409101054817190671F40E94E513B1
:104BF0001092D0041092010586E0EAECF4E0DF01A7
:104C00001D928A95E9F7C3CF96E0929FD001939FBA
:104C1000B00D1124AF52BB4FFE01319601900D92A1
:104C20009A95E1F78093D0040E948F07B0CF819FBF
:104C3000C00111248F529B4F0E941024882309F435
:104C4000ADCF8091010590E0019687709927809300
:104C500001059ECFCF92DF92EF92FF920F931F93A9
:104C6000CF93DF93C5EFD2E085E2E82E85E0F82E02
:104C7000D12C01E010E08991F894E82FE295EF70D3
:104C8000F0E021A18F70A80102C0440F551F8A9542
:104C9000E2F7CA01922F982B91A392A180958923C4
:104CA00082A3789400C0EAEFF2E030E020E0C12C6B
:104CB0004191A42FA295AF70B0E090968C9190E0B6
:104CC0004F7002C0959587954A95E2F780FD4DC0DB
:104CD000802F022E01C0880F0A94EAF7C82A2F5F9E
:104CE0003F4F2530310521F7FE01319780810E9429
:104CF000E70950EA5A95F1F7F7018081C816B9F132
:104D0000C08281E0D82AFFEFEF1AFF0A42E0CA3FD3
:104D1000D40709F0B0CFDD2061F181E08093D203A8
:104D20000E94461A9093D1038093D0038091D003C0
:104D30009091D1030E9458060697F8F080912505BE
:104D40008093950980912605809396098091270587
:104D5000809397098091280580939809809129056F
:104D6000809399091092D20308C080E0B7CF80E009
:104D7000C9CF8091D2038111D9CF80911A028823A3
:104D8000A1F08091C304882381F08091C4049091A4
:104D9000C504009751F00E945806893C910528F0FF
:104DA0001092C30481E00E945B118D2DDF91CF91A1
:104DB0001F910F91FF90EF90DF90CF900895CDB7A6
:104DC000DEB7AC970FB6F894DEBF0FBECDBF84B789
:104DD000877F84BF0FB6F894A895809160008861A2
:104DE00080936000109260000FBE80E890E00FB6E4
:104DF000F89480936100909361000FBE85B780683E
:104E000085BF85B7806885BF82E596E09093AF0344
:104E10008093AE030E94C7040E9492058091E20035
:104E200084608093E20078948091BF098823A1F088
:104E30001091E9001F709091EC00892F817090FD16
:104E400080E8182B1092E9008091E80083FD0E9411
:104E5000FA131F701093E90082E084BD93E095BDC2
:104E60009AEF97BD80936E0082E30E94E70987E383
:104E70000E94E70984EF0E94E70986EF0E94E70994
:104E800087EF0E94E70985EF0E94E70986EC0E9400
:104E9000E70980E30E94E70981E30E94E70983E3D1
:104EA0000E94E70910922505109295091092260597
:104EB00010929609109227051092970910922805D2
:104EC00010929809109229051092990990E080E0BB
:104ED0000E94DF308A3E9E4F11F00E94811782E0CF
:104EE00090E00E94D130809388090E94300D909309
:104EF0002405809323050E942A268FE39CE90197CD
:104F0000F1F700C000000E942A268091950980FFD9
:104F100017C06FEF83E290E00E94E5306FEF84E20C
:104F200090E00E94E5306FEF85E290E00E94E5306E
:104F30006FEF7FEF90E080E00E9403310E945810F5
:104F400083E090E00E94D130682F70E090E080E034
:104F50000E94830883E290E00E94D130813209F000
:104F600027C784E290E00E94D130883009F020C742
:104F700085E290E00E94D130813009F019C70E948B
:104F8000461A90933B0580933A0510927D0980E87C
:104F9000809337050E94212F6DE070E08BE298E04E
:104FA0000E94D80C892B59F580917D0963E070E04F
:104FB00081FDD8C188E298E00E94D80C892BF9F4D1
:104FC0006DE070E088E198E00E94D80C892BB9F47C
:104FD0000E946706605A75418F4F9F4F6093810909
:104FE0007093820980938309909384090E94C1166B
:104FF00081E0809386098093850910927E098091D3
:105000002A05811136C090E080E00E94DF308A3EA0
:105010009E4F21F00E9481170E94F71888E090E0CF
:105020000E94D930609390097093910980939209FE
:10503000909393096E7F71F40E94F71888E090E0D6
:105040000E94D930609390097093910980939209DE
:10505000909393090E94380910928F0980919009CA
:1050600080FF04C060E086950E94CC1A81E08093A6
:105070002A053F98479A3E98469A86B190E0880F55
:10508000892F881F990B369970C120E0822B80935D
:1050900036058AE592E0909339058093380585E9D5
:1050A00099E045E0642E680E8091BF09853001F5D6
:1050B00030E4F32EEE24E39400E112E18091BF0985
:1050C000853009F454C10E94E5130E948D081092A6
:1050D0002D0580912C05882349F0809190098160ED
:1050E0008093900960E086950E94CC1A0E94B61ABF
:1050F0000E942A26D82E81110E946706A5E9B9E0F0
:10510000E9E8F9E010E000E0302F8D9191919817D7
:1051100009F485C1292F282790E0FF24F3944F2D0F
:10512000422309F477C199A33AA38F2191E009F4AE
:1051300090E09BA30E94461A8160782F9DA38CA3C8
:1051400049A15AA16BA18DA10E949A25F801E757A8
:10515000F64F8081F826F08280918F098823D1F163
:1051600080918E09E0919009E695E81BE093300567
:10517000823009F06BC1F0E0E75BF74FE4910E2F4E
:1051800010E021ECE22E23E1F22E809131058823FC
:1051900061F0109231050E94461A90932F0580937A
:1051A0002E0510923305109232050E94461AE091A6
:1051B0002E05F0912F058E1B9F0B8F3F9F4750F4BC
:1051C000E00FF11FF0932F05E0932E058EE295E09E
:1051D000F7010995E0913605EE0FEE0FE0933605E5
:1051E00086B190E0880F892F881F990B36999AC154
:1051F00020E0822BE82BE0933605EF70F0E0E150E1
:10520000FD4F808190913505890F80933505F12CF4
:10521000843054F0809134058F5F8093340580E0B2
:105220000E941A1BFF24F394809135058D3F54F49E
:105230008091340581508093340581E00E941A1BCF
:10524000FF24F39480913505082E000C990B64E03F
:1052500070E00E94383080933505F1100E94670697
:1052600080918609882309F443C280913C0581110D
:1052700036C580913A0590913B050E945806883BBF
:105280009B4008F0D2C4E12C00E220E240E150E073
:1052900060E370E08FE093E00E943A0B20917F0979
:1052A000309180092115310509F4FDC180917E09F5
:1052B00061E070E08111F7C1082F10E02B01082E8A
:1052C00002C0440C551C0A94E2F7A901442155215F
:1052D000452B09F477C290917D0990FD75C28295A6
:1052E000880F880F80748093550298013695279512
:1052F00020935802815C809356021092590224E652
:1053000030E047E050E063E572E088E70E94B22FAA
:10531000892B09F0C8C1A80176E0440F551F7A9582
:10532000E1F780917D0980FD5DC243585A4F04E644
:1053300010E020E430E060E488E70E94D92F892B58
:1053400009F0B1C10E94080DC2018095909540906E
:105350007F0950908009482259225092800940923A
:105360007F09A1C185E298E027CE22E08FCE80910F
:10537000BF09843009F43FC010928F0980912D0538
:10538000811116C0E0922D0580919009982F91709F
:1053900090932C058E7F80939009BFEFE0E7F2E0B9
:1053A000B150E040F040E1F700C000000E947A11E7
:1053B00010922B0528E130E00FB6F894A8952093C1
:1053C00060000FBEF092600083B7817F846083BF6E
:1053D00083B7816083BF7894889583B78E7F83BFBE
:1053E0000FB6F894A8958091600088618093600062
:1053F000109260000FBE8091BE09882309F45ECE32
:105400000E942A26E5E9F9E081918111F8C36E1224
:10541000FBCF54CE9F5FFF0C953009F080CE0F5F1D
:105420001F4F0530110509F06FCE8FEF8EA38FA3AC
:1054300018A60E94461A8160782F9AA789A74EA1C4
:105440005FA168A58AA50E949A2586CE863059F468
:10545000F0E0EA5BF74FE4910E2F10E095EDE92EB6
:1054600093E1F92E92CE893061F4E695F0E0ED5BA0
:10547000F74FE4910E2F10E08FEAE82E81E1F82E2D
:1054800084CE8F3061F4E695F0E0E05CF74FE49174
:105490000E2F10E0B9EDEB2EB1E1FB2E76CE85316B
:1054A00059F4F0E0E35CF74FE4910E2F10E0A7E42D
:1054B000EA2EA2E1FA2E69CE08E210E075E9E72EA5
:1054C00072E1F72E883109F460CE833249F4EBE3C0
:1054D000F8E005911491F8E6EF2EF3E1FF2E55CE9A
:1054E00004EF11E06EE1E62E63E1F62E843209F45A
:1054F0004CCE00ED17E051E5E52E56E0F52E853255
:1055000009F043CE8E2F63E00E940A30E92FF0E0CD
:10551000E85CF74FE4910E2F10E0E2EDEE2EE6E1AD
:10552000FE2E33CE22E030E064CE00E024E04AE3F9
:1055300052E063E083E00E94C90B80E00E94B40C5B
:1055400010933502E0913805F091390580E03097ED
:1055500021F00190F081E02D0995182F1170209114
:105560003402022E000C330B1217130689F080FF51
:1055700015C101E024E04AE452E063E086E60E94BF
:10558000C90B00E02AE04DE762E085E60E94120BBD
:105590001093340210919009117080915202082EDC
:1055A000000C990B1817190691F0112309F400C18A
:1055B00001E023E046E452E06EE08AE60E94C90B77
:1055C00000E025E14BE76DE089E60E94120B1093A5
:1055D00052020E943009B82EC0909109C694C69418
:1055E000C694E0909209E694E694E69410919309AB
:1055F00016951695169580913902B81679F000E047
:1056000022E04EE452E068E18DE60E94C90B6B2D6A
:105610000B2C000C770B88E10E942B0C8091380238
:10562000C81679F000E022E04EE452E062E28DE636
:105630000E94C90B6C2D0C2C000C770B82E20E948F
:105640002B0C80913702E81679F000E022E04EE45E
:1056500052E06CE28DE60E94C90B6E2D0E2C000C00
:10566000770B8CE20E942B0C80913602181779F090
:1056700000E022E04EE452E066E38DE60E94C90BB2
:10568000612F012E000C770B86E30E942B0CB09249
:105690003902C0923802E0923702109336028091AC
:1056A00086098111FBCD80918509882309F10E942B
:1056B0006706009181091091820920918309309138
:1056C0008409601B710B820B930B6F3F7F4F8F4FD1
:1056D0009F4770F480918609882351F062E070E062
:1056E0008DE498E00E94D80C892B11F41092850962
:1056F000D11001C0F1100E94080D0E948D089091F8
:105700008709891721F00E948D088093870980916D
:10571000BF09843009F0C8CC83E08093E900809110
:10572000E80082FFC1CC8091E80090E085FF06C0D0
:105730000E94E604882309F4BBC091E08091E80050
:105740008B778093E800992309F4AECCE981E1508E
:10575000E33108F023C1F0E0EE55FE4C0C944C30E0
:1057600000E024E04EE352E063E083E00E94C90BD6
:1057700081E0E4CE00E024E042E452E063E083E034
:105780000E94C90B82E0DACE00E024E046E452E059
:1057900063E083E00E94C90B83E0D0CE00E024E008
:1057A0004AE452E063E086E60E94C90B01E0EACEDB
:1057B00000E023E046E452E06EE08AE60E94C90B76
:1057C00001E0FFCE8F5F78CD880F880F880F809320
:1057D000550210925802895F8093560287E08093A9
:1057E00059028DCDEDE3F5E080E4DF011D928A954D
:1057F000E9F7E7E9F3E0FCA7EBA70FE813E067E0C0
:10580000C62E99249394ABA5BCA52D91BCA7ABA79C
:10581000F80121908F01240E352E311CC1018358CF
:105820009A4F1C01E22FF0E0E35CFA4F30E020E0F9
:105830007C2C721AE92C022E01C0EE0C0A94EAF7B5
:10584000510190E0D5018D915D018E21672D691B7D
:105850006770862E062E000C770BB82F01C0BB0F89
:105860008A94EAF78B2E7195619571096770772795
:1058700001C086956A95EAF7882A8081882A808205
:105880009F5F9830F9F62F5F3F4F319628303105F2
:1058900079F6EFE9F3E02BA53CA5E217F30709F051
:1058A000B2CF04E610E020E430E04DE355E043CD14
:1058B00000E210E0CE0101967C018091E80085FDB8
:1058C0000AC08091E8008B778093E8000E94E6048C
:1058D000882399F332CF8091F100D7018D937D0118
:1058E0000150110951F729CF1A8289E08B8321C019
:1058F0008A81823009F475C2833061F0813009F009
:105900004DC00E9467060E9452306B837C838D835A
:105910009E830FC0809195098B83809196098C831B
:10592000809197098D83809198098E838091990940
:105930008F838091BF09843009F0B6CB1091E900C4
:105940001F709091EC00892F817090FD80E8182BDA
:1059500082E08093E9008091E80080FF0DC050E074
:1059600040E060E270E0CE0101960E941705809150
:10597000E8008E778093E8001F701093E90094CBC5
:105980008A81823059F46B817C818D819E810E9455
:10599000523086E290E00E94E530CBCF8FEF8983D2
:1059A000C8CF4C816B818A810E943E0D9827892740
:1059B00098279E838D83BDCFED80FE80FE24EF244B
:1059C000FE248A810B81BAE00B9F80011124E2E35F
:1059D0008E9F000D111D11248C8190E0880F991F5E
:1059E000080F191F6F2DC80187960E94E5306E2D94
:1059F000C8018896D0CF0E94600F9BCF8A818138E2
:105A0000C1F060F4803809F094CF20E04B816091C0
:105A10009209809191090E94FE178BCF823859F12B
:105A2000833809F086CF20E0409193096C818B8107
:105A3000F2CF60E08B810E94CC1A9B81809190090B
:105A4000911111C08E7F8093900910928F09FFEF02
:105A500020E732E0F15020403040E1F700C0000084
:105A60000E947A1166CF81608093900960E08695EC
:105A70000E94CC1A5ECF8B81809394095ACF8A8181
:105A8000813899F030F4803809F053CF8091930930
:105A90002DCF823869F0833809F04BCF809191097E
:105AA0008B83809192098C8344CF0E9430091ECF52
:105AB000809194091BCF6091900970919109809118
:105AC0009209909193090E94EC1733CF80E18A8369
:105AD00030CF83E08A8381E109CFEA80FB80FE2416
